{
  "contractName": "SimpleStorage",
  "abi": [
    {
      "constant": true,
      "inputs": [
        {
          "name": "",
          "type": "uint256"
        }
      ],
      "name": "winner",
      "outputs": [
        {
          "name": "",
          "type": "address"
        }
      ],
      "payable": false,
      "stateMutability": "view",
      "type": "function"
    },
    {
      "payable": true,
      "stateMutability": "payable",
      "type": "fallback"
    },
    {
      "constant": false,
      "inputs": [],
      "name": "giveMeMoney",
      "outputs": [],
      "payable": false,
      "stateMutability": "nonpayable",
      "type": "function"
    },
    {
      "constant": true,
      "inputs": [],
      "name": "getWin",
      "outputs": [
        {
          "name": "",
          "type": "address[1]"
        }
      ],
      "payable": false,
      "stateMutability": "view",
      "type": "function"
    },
    {
      "constant": false,
      "inputs": [
        {
          "name": "x",
          "type": "uint256"
        }
      ],
      "name": "set",
      "outputs": [],
      "payable": false,
      "stateMutability": "nonpayable",
      "type": "function"
    },
    {
      "constant": true,
      "inputs": [],
      "name": "get",
      "outputs": [
        {
          "name": "",
          "type": "uint256"
        }
      ],
      "payable": false,
      "stateMutability": "view",
      "type": "function"
    },
    {
      "constant": true,
      "inputs": [],
      "name": "getBalance",
      "outputs": [
        {
          "name": "",
          "type": "uint256"
        }
      ],
      "payable": false,
      "stateMutability": "view",
      "type": "function"
    },
    {
      "constant": false,
      "inputs": [
        {
          "name": "amount",
          "type": "uint256"
        }
      ],
      "name": "deposit",
      "outputs": [],
      "payable": true,
      "stateMutability": "payable",
      "type": "function"
    },
    {
      "constant": false,
      "inputs": [
        {
          "name": "theGuess",
          "type": "uint256"
        }
      ],
      "name": "withdraw",
      "outputs": [
        {
          "name": "",
          "type": "bool"
        }
      ],
      "payable": false,
      "stateMutability": "nonpayable",
      "type": "function"
    }
  ],
  "bytecode": "0x608060405234801561001057600080fd5b50610453806100206000396000f30060806040526004361061008e576000357c0100000000000000000000000000000000000000000000000000000000900463ffffffff16806312065fe0146100905780631cbeae5e146100bb5780632e1a7d4d1461012857806360fe47b11461016d5780636d4ce63c1461019a5780637aa1469f146101c5578063b6b55f25146101dc578063d6d36b92146101fc575b005b34801561009c57600080fd5b506100a561024f565b6040518082815260200191505060405180910390f35b3480156100c757600080fd5b506100e66004803603810190808035906020019092919050505061026e565b604051808273ffffffffffffffffffffffffffffffffffffffff1673ffffffffffffffffffffffffffffffffffffffff16815260200191505060405180910390f35b34801561013457600080fd5b50610153600480360381019080803590602001909291905050506102a3565b604051808215151515815260200191505060405180910390f35b34801561017957600080fd5b5061019860048036038101908080359060200190929190505050610320565b005b3480156101a657600080fd5b506101af61032a565b6040518082815260200191505060405180910390f35b3480156101d157600080fd5b506101da610333565b005b6101fa60048036038101908080359060200190929190505050610373565b005b34801561020857600080fd5b50610211610384565b6040518082600160200280838360005b8381101561023c578082015181840152602081019050610221565b5050505090500191505060405180910390f35b60003073ffffffffffffffffffffffffffffffffffffffff1631905090565b60018160018110151561027d57fe5b016000915054906101000a900473ffffffffffffffffffffffffffffffffffffffff1681565b6000816000541415610316573373ffffffffffffffffffffffffffffffffffffffff166108fc3073ffffffffffffffffffffffffffffffffffffffff16319081150290604051600060405180830381858888f1935050505015801561030c573d6000803e3d6000fd5b506001905061031b565b600090505b919050565b8060008190555050565b60008054905090565b3373ffffffffffffffffffffffffffffffffffffffff166108fc670de0b6b3a76400009081150290604051600060405180830381858888f1935050505050565b803414151561038157600080fd5b50565b61038c610404565b600180806020026040519081016040528092919082600180156103fa576020028201915b8160009054906101000a900473ffffffffffffffffffffffffffffffffffffffff1673ffffffffffffffffffffffffffffffffffffffff16815260200190600101908083116103b0575b5050505050905090565b6020604051908101604052806001906020820280388339808201915050905050905600a165627a7a723058209e23f264698c53f4981babec2010df6f2a96ef60dc19f459cfb5958ae5000a3f0029",
  "source": "pragma solidity ^0.4.18;\n\ncontract SimpleStorage {\n  uint storedData;\n  address[1] public winner;\n\n  function giveMeMoney() {\n  \tmsg.sender.send(1000000000000000000);\n  }\n\n  function getWin() public view returns (address[1]) {\n  \treturn winner;\n  }\n\n  function set(uint x) public {\n    storedData = x;\n  }\n\n  function get() public view returns (uint) {\n    return storedData;\n  }\n\n  function getBalance() public view returns (uint) {\n  \treturn address(this).balance;\n  }\n\n  function deposit(uint amount) payable public {\n        require(msg.value == amount);\n        // nothing else to do!\n  }\n\n  function() payable {\n\n  }\n\n  function withdraw(uint theGuess) public returns (bool) {\n  \t// require(address(this).balance > 0);\n  \t\n  \tif(storedData == theGuess){\n  \t\tmsg.sender.transfer(address(this).balance);\n  \t\treturn true;\n  \t} else {\n  \t\treturn false;\n    }\n  }\n}\n",
  "sourcePath": "C:\\Users\\Spikes\\Google Drive\\College\\Senior\\Computer Security\\FinalProject\\Final\\contracts\\SimpleStorage.sol",
  "compiler": {
    "name": "solc",
    "version": "0.4.23+commit.124ca40d.Emscripten.clang"
  },
  "schemaVersion": "2.0.0",
  "updatedAt": "2018-05-09T13:48:34.602Z"
}